:020000040000fa
:080000000001040000000000f3
:020000040000fa
:100008009a0100009a0100009a0100009a0100007c
:100018009a0100009a0100009a0100009a0100006c
:100028009a0100009a0100009a0100009a0100005c
:100038009a0100009a0100009a0100009a0100004c
:100048009a0100009a0100009a0100009a0100003c
:100058009a0100009a0100009a0100009a0100002c
:100068009a0100009a0100009a0100009a0100001c
:100078009a0100009a0100009a0100009a0100000c
:100088009a0100009a0100009a0100009a010000fc
:100098009a0100009a0100009a0100009a010000ec
:1000a8009a0100009a0100009a0100009a010000dc
:1000b8009a0100009a0100009a0100009a010000cc
:1000c8009a0100009a0100009a0100009a010000bc
:1000d8009a0100009a0100009a0100009a010000ac
:1000e8009a0100009a0100009a0100009a0100009c
:0800f8009a0100009a010000ca
:020000040000fa
:100108009a0100009a0100009a0100009a0100007b
:100118009a0100009a0100009a0100009a0100006b
:100128009a0100009a0100009a0100009a0100005b
:100138009a0100009a0100009a0100009a0100004b
:100148009a0100009a0100009a0100009a0100003b
:100158009a0100009a0100009a0100009a0100002b
:100168009a0100009a0100009a0100009a0100001b
:100178009a0100009a0100009a0100009a0100000b
:100188009a0100009a0100009a0100009a010000fb
:100198009a0100009a0100009a0100009a010000eb
:1001a8009a0100009a0100009a0100009a010000db
:1001b8009a0100009a0100009a0100009a010000cb
:1001c8009a0100009a0100009a0100009a010000bb
:1001d8009a0100009a0100009a0100009a010000ab
:1001e8009a0100009a0100009a0100009a0100009b
:0801f8009a0100009a010000c9
:020000040000fa
:100200000f8020000e7f22000e01880000000000f9
:10021000000020000000e000020032000001200089
:10022000200288000c0007000025200001002000ab
:1002300011000700000020000000e0000200320072
:100240000000020000000000120202000000000096
:100250000040da000000fe004440a9000000200039
:100260000000e0000300320000002000a001880030
:100270004440a8000000060091018800800078003a
:100280000000eb0015003700e280400032a0b4000f
:100290009101ba00e280400032a0b4009102ba009d
:1002a000e280400032a0b4000002eb00472bde00e9
:1002b000f507b200602ce10004003a000059eb00a1
:1002c0008301e900fdff3e00040037006128e100e2
:1002d000010032000082eb00040007001101ba00a7
:1002e0000200e000e8ff3a00000006003159ba00c1
:1002f0008301e9000c0032002159ba008301e900b2
:10030000080032000400e00003003a00e2804000f0
:1003100032a0b400f5ff370011d9ba008301e9001b
:10032000faff3a008100e800e180400032a0b4000a
:0c033000000006000040da000000fe00a3
:020000040000fa
:10033c000000fa0022a2a80020c2a9002302a900f2
:10034c0022c2a8002362a90023c2a9002342a9004b
:10035c002322a90022e2a900101180000000a100b4
:10036c000010a10010118800101180000020a000c6
:10037c000030a0000040a0001011880021e2a8006d
:10038c000080fa00000006000400fa00000f78005c
:10039c00214798008500a9001e0078000000e000ad
:1003ac000c003a00ca42a9002e4090000000fb004d
:1003bc0020118800000000002104800000102000a3
:1003cc00008060000000e000fbff32008500a90007
:1003dc00ca42a8001e007800e10f50000a003a0043
:1003ec002e4090000000fb0020118800000000004f
:1003fc002104800000102000008060000000e0005c
:10040c00fbff32008500a90020118000004078001d
:10041c000080fa00000006000000fa00c022ef0085
:10042c0000082000f0168800c642a900c222ef0086
:10043c00e022ef00c4e2a80000c02400d10120009b
:10044c0006000700c4e2a900b9ff070021c1b300f0
:0c045c000000eb00ccff0700fcff3700a5
:020000040000fa
:10046800f03fb1000180b10006003500ee0309003d
:1004780000000000403fb1000180b100fbff3d00db
:100488001000b000203fb0000200350000800900d5
:08049800000000000000060056
:020000040000fa
:0404a0000000000058
:020000040000fa
:0200000401f009
:04000000e0b9000063
:020000040000fa
:0200000401f009
:04000400ff7f00007a
:020000040000fa
:0200000401f009
:04000800ff7f000076
:020000040000fa
:0200000401f009
:04000c00ffff0000f2
:020000040000fa
:0200000401f009
:04001000ffff0000ee
:020000040000fa
:0200000401f009
:04001400ffff0000ea
:020000040000fa
:0200000401f009
:04001800ffff0000e6
:00000001FF
